{
  "_format": "hh-sol-artifact-1",
  "contractName": "Payments",
  "sourceName": "contracts/Payments.sol",
  "abi": [
    {
      "inputs": [],
      "stateMutability": "nonpayable",
      "type": "constructor"
    },
    {
      "anonymous": false,
      "inputs": [
        {
          "indexed": false,
          "internalType": "address",
          "name": "addr",
          "type": "address"
        },
        {
          "indexed": false,
          "internalType": "uint256",
          "name": "amount",
          "type": "uint256"
        },
        {
          "indexed": false,
          "internalType": "uint256",
          "name": "contractBalance",
          "type": "uint256"
        }
      ],
      "name": "LogEmployeeSalaryReceived",
      "type": "event"
    },
    {
      "inputs": [
        {
          "internalType": "address payable",
          "name": "walletAddress",
          "type": "address"
        },
        {
          "internalType": "string",
          "name": "firstName",
          "type": "string"
        },
        {
          "internalType": "string",
          "name": "lastName",
          "type": "string"
        },
        {
          "internalType": "uint256",
          "name": "salary",
          "type": "uint256"
        },
        {
          "internalType": "string",
          "name": "role",
          "type": "string"
        }
      ],
      "name": "addEmployee",
      "outputs": [],
      "stateMutability": "nonpayable",
      "type": "function"
    },
    {
      "inputs": [],
      "name": "checkBalance",
      "outputs": [
        {
          "internalType": "uint256",
          "name": "",
          "type": "uint256"
        }
      ],
      "stateMutability": "view",
      "type": "function"
    },
    {
      "inputs": [
        {
          "internalType": "address",
          "name": "walletAddress",
          "type": "address"
        }
      ],
      "name": "deposit",
      "outputs": [],
      "stateMutability": "payable",
      "type": "function"
    },
    {
      "inputs": [
        {
          "internalType": "uint256",
          "name": "",
          "type": "uint256"
        }
      ],
      "name": "employees",
      "outputs": [
        {
          "internalType": "address payable",
          "name": "walletAddress",
          "type": "address"
        },
        {
          "internalType": "string",
          "name": "firstName",
          "type": "string"
        },
        {
          "internalType": "string",
          "name": "lastName",
          "type": "string"
        },
        {
          "internalType": "uint256",
          "name": "salary",
          "type": "uint256"
        },
        {
          "internalType": "string",
          "name": "role",
          "type": "string"
        }
      ],
      "stateMutability": "view",
      "type": "function"
    },
    {
      "inputs": [],
      "name": "getEmployeeList",
      "outputs": [
        {
          "components": [
            {
              "internalType": "address payable",
              "name": "walletAddress",
              "type": "address"
            },
            {
              "internalType": "string",
              "name": "firstName",
              "type": "string"
            },
            {
              "internalType": "string",
              "name": "lastName",
              "type": "string"
            },
            {
              "internalType": "uint256",
              "name": "salary",
              "type": "uint256"
            },
            {
              "internalType": "string",
              "name": "role",
              "type": "string"
            }
          ],
          "internalType": "struct Payments.Employee[]",
          "name": "",
          "type": "tuple[]"
        }
      ],
      "stateMutability": "view",
      "type": "function"
    }
  ],
  "bytecode": "0x608060405234801561001057600080fd5b50336000806101000a81548173ffffffffffffffffffffffffffffffffffffffff021916908373ffffffffffffffffffffffffffffffffffffffff1602179055506110b2806100606000396000f3fe60806040526004361061004a5760003560e01c80630b9362a21461004f5780630ee5e7e51461007a5780634739326b146100a3578063c71daccb146100e4578063f340fa011461010f575b600080fd5b34801561005b57600080fd5b5061006461012b565b6040516100719190610ac5565b60405180910390f35b34801561008657600080fd5b506100a1600480360381019061009c9190610c88565b6103a0565b005b3480156100af57600080fd5b506100ca60048036038101906100c59190610d57565b6104b9565b6040516100db959493929190610dec565b60405180910390f35b3480156100f057600080fd5b506100f96106b7565b6040516101069190610e54565b60405180910390f35b61012960048036038101906101249190610ead565b6106bf565b005b60606001805480602002602001604051908101604052809291908181526020016000905b8282101561039757838290600052602060002090600502016040518060a00160405290816000820160009054906101000a900473ffffffffffffffffffffffffffffffffffffffff1673ffffffffffffffffffffffffffffffffffffffff1673ffffffffffffffffffffffffffffffffffffffff1681526020016001820180546101d890610f09565b80601f016020809104026020016040519081016040528092919081815260200182805461020490610f09565b80156102515780601f1061022657610100808354040283529160200191610251565b820191906000526020600020905b81548152906001019060200180831161023457829003601f168201915b5050505050815260200160028201805461026a90610f09565b80601f016020809104026020016040519081016040528092919081815260200182805461029690610f09565b80156102e35780601f106102b8576101008083540402835291602001916102e3565b820191906000526020600020905b8154815290600101906020018083116102c657829003601f168201915b505050505081526020016003820154815260200160048201805461030690610f09565b80601f016020809104026020016040519081016040528092919081815260200182805461033290610f09565b801561037f5780601f106103545761010080835404028352916020019161037f565b820191906000526020600020905b81548152906001019060200180831161036257829003601f168201915b5050505050815250508152602001906001019061014f565b50505050905090565b60016040518060a001604052808773ffffffffffffffffffffffffffffffffffffffff16815260200186815260200185815260200184815260200183815250908060018154018082558091505060019003906000526020600020906005020160009091909190915060008201518160000160006101000a81548173ffffffffffffffffffffffffffffffffffffffff021916908373ffffffffffffffffffffffffffffffffffffffff160217905550602082015181600101908051906020019061046b9291906107e9565b5060408201518160020190805190602001906104889291906107e9565b506060820151816003015560808201518160040190805190602001906104af9291906107e9565b5050505050505050565b600181815481106104c957600080fd5b90600052602060002090600502016000915090508060000160009054906101000a900473ffffffffffffffffffffffffffffffffffffffff169080600101805461051290610f09565b80601f016020809104026020016040519081016040528092919081815260200182805461053e90610f09565b801561058b5780601f106105605761010080835404028352916020019161058b565b820191906000526020600020905b81548152906001019060200180831161056e57829003601f168201915b5050505050908060020180546105a090610f09565b80601f01602080910402602001604051908101604052809291908181526020018280546105cc90610f09565b80156106195780601f106105ee57610100808354040283529160200191610619565b820191906000526020600020905b8154815290600101906020018083116105fc57829003601f168201915b50505050509080600301549080600401805461063490610f09565b80601f016020809104026020016040519081016040528092919081815260200182805461066090610f09565b80156106ad5780601f10610682576101008083540402835291602001916106ad565b820191906000526020600020905b81548152906001019060200180831161069057829003601f168201915b5050505050905085565b600047905090565b6106c8816106cb565b50565b60005b6001805490508110156107e5578173ffffffffffffffffffffffffffffffffffffffff166001828154811061070657610705610f3a565b5b906000526020600020906005020160000160009054906101000a900473ffffffffffffffffffffffffffffffffffffffff1673ffffffffffffffffffffffffffffffffffffffff16036107d257346001828154811061076857610767610f3a565b5b906000526020600020906005020160030160008282546107889190610f98565b925050819055507f02dc7f3b4dab8883f19e0511cb0d55ca2f7ff3c70bf8f1a9e754e1dadcb969a182346107ba6106b7565b6040516107c993929190610ffd565b60405180910390a15b80806107dd90611034565b9150506106ce565b5050565b8280546107f590610f09565b90600052602060002090601f016020900481019282610817576000855561085e565b82601f1061083057805160ff191683800117855561085e565b8280016001018555821561085e579182015b8281111561085d578251825591602001919060010190610842565b5b50905061086b919061086f565b5090565b5b80821115610888576000816000905550600101610870565b5090565b600081519050919050565b600082825260208201905092915050565b6000819050602082019050919050565b600073ffffffffffffffffffffffffffffffffffffffff82169050919050565b60006108e3826108b8565b9050919050565b6108f3816108d8565b82525050565b600081519050919050565b600082825260208201905092915050565b60005b83811015610933578082015181840152602081019050610918565b83811115610942576000848401525b50505050565b6000601f19601f8301169050919050565b6000610964826108f9565b61096e8185610904565b935061097e818560208601610915565b61098781610948565b840191505092915050565b6000819050919050565b6109a581610992565b82525050565b600060a0830160008301516109c360008601826108ea565b50602083015184820360208601526109db8282610959565b915050604083015184820360408601526109f58282610959565b9150506060830151610a0a606086018261099c565b5060808301518482036080860152610a228282610959565b9150508091505092915050565b6000610a3b83836109ab565b905092915050565b6000602082019050919050565b6000610a5b8261088c565b610a658185610897565b935083602082028501610a77856108a8565b8060005b85811015610ab35784840389528151610a948582610a2f565b9450610a9f83610a43565b925060208a01995050600181019050610a7b565b50829750879550505050505092915050565b60006020820190508181036000830152610adf8184610a50565b905092915050565b6000604051905090565b600080fd5b600080fd5b610b04816108d8565b8114610b0f57600080fd5b50565b600081359050610b2181610afb565b92915050565b600080fd5b600080fd5b7f4e487b7100000000000000000000000000000000000000000000000000000000600052604160045260246000fd5b610b6982610948565b810181811067ffffffffffffffff82111715610b8857610b87610b31565b5b80604052505050565b6000610b9b610ae7565b9050610ba78282610b60565b919050565b600067ffffffffffffffff821115610bc757610bc6610b31565b5b610bd082610948565b9050602081019050919050565b82818337600083830152505050565b6000610bff610bfa84610bac565b610b91565b905082815260208101848484011115610c1b57610c1a610b2c565b5b610c26848285610bdd565b509392505050565b600082601f830112610c4357610c42610b27565b5b8135610c53848260208601610bec565b91505092915050565b610c6581610992565b8114610c7057600080fd5b50565b600081359050610c8281610c5c565b92915050565b600080600080600060a08688031215610ca457610ca3610af1565b5b6000610cb288828901610b12565b955050602086013567ffffffffffffffff811115610cd357610cd2610af6565b5b610cdf88828901610c2e565b945050604086013567ffffffffffffffff811115610d0057610cff610af6565b5b610d0c88828901610c2e565b9350506060610d1d88828901610c73565b925050608086013567ffffffffffffffff811115610d3e57610d3d610af6565b5b610d4a88828901610c2e565b9150509295509295909350565b600060208284031215610d6d57610d6c610af1565b5b6000610d7b84828501610c73565b91505092915050565b610d8d816108d8565b82525050565b600082825260208201905092915050565b6000610daf826108f9565b610db98185610d93565b9350610dc9818560208601610915565b610dd281610948565b840191505092915050565b610de681610992565b82525050565b600060a082019050610e016000830188610d84565b8181036020830152610e138187610da4565b90508181036040830152610e278186610da4565b9050610e366060830185610ddd565b8181036080830152610e488184610da4565b90509695505050505050565b6000602082019050610e696000830184610ddd565b92915050565b6000610e7a826108b8565b9050919050565b610e8a81610e6f565b8114610e9557600080fd5b50565b600081359050610ea781610e81565b92915050565b600060208284031215610ec357610ec2610af1565b5b6000610ed184828501610e98565b91505092915050565b7f4e487b7100000000000000000000000000000000000000000000000000000000600052602260045260246000fd5b60006002820490506001821680610f2157607f821691505b602082108103610f3457610f33610eda565b5b50919050565b7f4e487b7100000000000000000000000000000000000000000000000000000000600052603260045260246000fd5b7f4e487b7100000000000000000000000000000000000000000000000000000000600052601160045260246000fd5b6000610fa382610992565b9150610fae83610992565b9250827fffffffffffffffffffffffffffffffffffffffffffffffffffffffffffffffff03821115610fe357610fe2610f69565b5b828201905092915050565b610ff781610e6f565b82525050565b60006060820190506110126000830186610fee565b61101f6020830185610ddd565b61102c6040830184610ddd565b949350505050565b600061103f82610992565b91507fffffffffffffffffffffffffffffffffffffffffffffffffffffffffffffffff820361107157611070610f69565b5b60018201905091905056fea2646970667358221220d8a7878bcb852edc97dca4d904dae58ccd84703cbd05bd9c85dc16bb7bb0b14064736f6c634300080e0033",
  "linkReferences": {},
  "deployedLinkReferences": {}
}